:10000000970100209381814017810020130181FF17
:1000100097070000938717077390573097070020C2
:10002000938747FE174701001307C7329706002042
:100030009386C6FD63EED70097070020938707FDE0
:10004000175700201307C7E863EBE700EF90F06A4B
:1000500011070326C7FF910723AEC7FEE1BF910733
:1000600023AE07FED5B7000000000000000000002E
:100070000000000000000000000000000000000080
:100080007DA091A289A2D5A83DAA35AA2DAAF5A046
:100090001DAA15AA0DAAD5A0CDA035A22DA225A2D4
:1000A0001DA2E1A8D9A8D1A8C9A8C1A8F9A0F1A00A
:1000B000E9A0E1A0D9A0D1A0C9A0C1A07DA875A840
:1000C0006DA865A85DA855A84DA845A87DA075A0F8
:1000D0006DA065A05DA055A04DA045A079A871A810
:1000E00069A861A859A851A849A841A879A071A0F8
:1000F00069A061A059A051A049A041A0E9A0E1A038
:10010000D9A0D1A0C9A0C1A07DA885A8BDA0B5A037
:10011000ADA0A5A09DA095A08DA085A0B9A8B1A8CF
:100120005DA055A099A891A889A881A8B9A0397106
:1001300006C016C21AC41EC62AC82ECA32CC36CE73
:100140003AD03ED242D446D672D876DA7ADC7EDE17
:10015000EF907079824092422243B2434245D245A9
:100160006246F246025792572258B258425ED25E19
:10017000625FF25F216173002030397106C016C2E0
:100180001AC41EC62AC82ECA32CC36CE3AD03ED2A7
:1001900042D446D672D876DA7ADC7EDEEF90D0751D
:1001A000824092422243B2434245D2456246F246E1
:1001B000025792572258B258425ED25E625FF25F97
:1001C0002161730020300100FDBFB7170240984342
:1001D000C176FD16758F98C398438176FD16758F8D
:1001E00098C39843C166558F98C38567FD17371725
:1001F000024014431396E60063410606FD17F5FB23
:100200000545B7160240DC423707C3FF7D17F98F5B
:1002100009476319E5004167D98FD856398B1367B1
:100220001700D8D671773D07F98F370728201307B5
:100230000740D98F371702405CC31C43B706000143
:10024000D58F1CC38567FD1714431396660063485A
:100250000600FD17F5FB7D55828009455DB75C43BF
:1002600037160240A146F19B93E727005CC38567E0
:10027000FD175842318B6305D700FD17FDFBE1BF29
:10028000828011E1828001007D15E5BF4111971642
:1002900001009386A6D3172601001306263B972557
:1002A00001009385A539172501001305253D06C6D4
:1002B000EFA0B07E97160100938646D21726010064
:1002C0001306C638972501009385453A1725010086
:1002D0001305C536EFA0707C97160100938606D1F2
:1002E00017260100130686369725010093850537EA
:1002F0001725010013058537EFA0307A9716010006
:100300009386C6CF172601001306463497250100B1
:100310009385C5361725010013054534EFA0F07706
:1003200097160100938686CE17360100130606C97C
:10033000972501009385857A172501001305056D22
:10034000EFA0B07597160100938646CD17360100D1
:100350001306C6C897250100938545791735010016
:100360001305C5B9EFA0707397160100938606CCEC
:10037000172601001306867C972501009385057FCB
:1003800017350100130585AAEFA0307197160100FB
:100390009386C6CA17360100130646C39735010077
:1003A0009385C5B41725010013054573EFA0F06EC2
:1003B00097160100938686C9173601001306069426
:1003C0009735010093858595172501001305053E96
:1003D000EFA0B06C97160100938646C8172601005F
:1003E0001306C673972501009385457417350100E0
:1003F0001305C597EFA0706A97160100938606C78C
:100400001726010013068641972501009385053ABA
:100410001735010013058590EFA03068971601008D
:100420009386C6C51726010013064670972501005E
:100430009385C5681725010013054563EFA0F06596
:1004400097160100938686C4173601001306068EA0
:10045000973501009385858C1725010013050571DB
:10046000EFA0B06397160100938646C317260100DC
:100470001306C66D97250100938545551725010084
:100480001305C562EFA0706197160100938606C23E
:10049000172601001306863A9725010093850576F5
:1004A000172501001305853AEFA0305F971601006C
:1004B0009386C6C017360100130646C19725010072
:1004C0009385C538172501001305456BEFA0F05C37
:1004D00097160100938686BF17260100130606397A
:1004E0009725010093858539172501001305056FB0
:1004F000EFA0B05A97160100938646BE173601004A
:100500001306C6BA97250100938545681725010093
:100510001305C536EFA0705897160100938606BDE7
:100520001726010013068639972501009385057368
:100530001725010013058539EFA0305697160100E5
:100540009386C6BB17360100130646B497250100F3
:100550009385C537172501001305456DEFA0F053AE
:1005600097160100938686BA1726010013060638EF
:100570009725010093858538172501001305056F20
:10058000EFA0B05197160100938646B917360100C7
:100590001306C6B497250100938545681725010009
:1005A0001305C535EFA0704F97160100938606B866
:1005B0001726010013068636972501009385053717
:1005C000172501001305856BEFA0304D971601002C
:1005D0009386C6B617360100130646AE972501006E
:1005E0009385C55C1725010013054534EFA0F04A3B
:1005F00097160100938686B5172601001306063567
:100600009725010093858568172501001305053599
:10061000EFA0B04897160100938646B41736010044
:100620001306C6A7972501009385453317250100BA
:100630001305C558EFA0704697160100938606B3C0
:100640001726010013068649973501009385059703
:100650001735010013058597EFA030449716010068
:100660009386C6B1173601001306468797350100F9
:100670009385C5901735010013054592EFA0F04111
:1006800097160100938686B01726010013060646CA
:100690009735010093858594173501001305059260
:1006A000EFA0B03F97160100938646AF17360100C2
:1006B0001306C682973501009385458E17350100D4
:1006C0001305C58CEFA0703D97160100938606AE0A
:1006D000173601001306868A973501009385058039
:1006E0001735010013058580EFA0303B97160100F8
:1006F0009386C6AC1736010013064689972501007C
:100700009385C57F172501001305457DEFA0F038BF
:1007100097160100938686AB172601001306064242
:10072000972501009385856517250100130505426E
:10073000EFA0B03697160100938646AA172601004F
:100740001306C63F972501009385453C17250100F8
:100750001305C562EFA0703497160100938606A9B1
:10076000172601001306863B972501009385056631
:10077000172501001305856AEFA030329716010096
:100780009386C6A7173601001306468B97250100EE
:100790009385C5271725010013054578EFA0F02F95
:1007A00097160100938686A61726010013060624D5
:1007B000972501009385850017250100130505572E
:1007C000EFA0B02D97160100938646A517260100CD
:1007D0001306C6FE972501009385453717250100AE
:1007E0001305C52CEFA0702B97160100938606A465
:1007F00017260100130686209725010093850550D2
:1008000017250100130585FAEFA03029971601007E
:100810009386C6A217260100130646F99725010004
:100820009385C5291725010013054530EFA0F02653
:1008300097160100938686A1172601001306062B42
:10084000972501009385851C172501001305056E6A
:10085000EFA0B02497160100938646A0172601004A
:100860001306C675972501009385451A17250100C3
:100870001305C527EFA07022971601009386069FE7
:100880001726010013068612972501009385057926
:10089000172501001305855DEFA030209716010094
:1008A0009386C69D172601001306460F9725010063
:1008B0009385C55B1725010013054575EFA0F01D55
:1008C000971601009386869C1726010013060630B2
:1008D000972501009385851517250100130505DC73
:1008E000EFA0B01B971601009386469B17260100C8
:1008F0001306C61A97250100938545181725010090
:100900001305C53DEFA07019971601009386069A4E
:10091000172601001306862B97250100938505D81D
:100920001725010013058511EFA030179716010058
:100930009386C698172601001306461597250100D1
:100940009385C5371725010013054513EFA0F01453
:1009500097160100938686971726010013060661F5
:10096000972501009385850E172501001305057154
:10097000EFA0B01297160100938646961726010045
:100980001306C615972501009385455917250100C3
:100990001305C507EFA07010971601009386069502
:1009A000172601001306864297250100938505430B
:1009B000172501001305851AEFA0300E97160100C8
:1009C0009386C693172601001306463F972501001C
:1009D0009385C5721725010013054507EFA0F00B9D
:1009E0009716010093868692172601001306065774
:1009F00097250100938585661725010013050510CD
:100A0000EFA0B009971601009386469117260100C2
:100A10001306C6109725010093854535172501005B
:100A20001305C5FBEFA0700797160100938606908B
:100A30001726010013068604972501009385055F9C
:100A40001725010013058504EFA030059716010056
:100A50009386C68E172601001306460297250100CD
:100A60009385C503172501001305455CEFA0F0022F
:100A7000971601009386868D17260100130606013E
:100A80009725010093858538172501001305052258
:100A9000EFA0B000971601009386468C1726010040
:100AA0001306C62197250100938545FE17250100F1
:100AB0001305C556EFA0607E971601009386068B3E
:100AC00017260100130686FD972501009385052052
:100AD0001725010013058533EFA0207C9716010030
:100AE0009386C689172601001306461F9725010025
:100AF0009385C55117250100130545FAEFA0E0794C
:100B0000971601009386868817260100130606D1E2
:100B100097250100938585F917250100130505EA3E
:100B2000EFA0A0779716010093864687172601004D
:100B30001306C6F797250100938545CE17250100BA
:100B40001305C5C7EFA0607597160100938606864A
:100B500017260100130686CC97250100938505E62C
:100B600017250100130585F5EFA0207397160100E6
:100B70009386C68417260100130646F497250100C4
:100B80009385C5C217250100130545C9EFA0E07084
:100B9000971601009386868317260100130606EC3C
:100BA00097250100938585B017250100130505F2EF
:100BB000EFA0A06E971601009386468217260100CB
:100BC0001306C60D972501009385452617250100BC
:100BD0001305C5F9EFA0606C971601009386068196
:100BE000172601001306863397250100938505EF2C
:100BF0001725010013058524EFA0206A9706010040
:100C00009386C67F17260100130646139725010019
:100C10009385C5EC1725010013054502EFA0E06799
:100C2000970601009386867E17260100130606307C
:100C3000972501009385852117250100130505EBF4
:100C4000EFA0A065970601009386467D1726010058
:100C50001306C60F97250100938545FF1725010050
:100C60001305C5E8EFA06063970601009386067C34
:100C7000172601001306862E97250100938505E8A7
:100C80001725010013058517EFA0206197060100C5
:100C90009386C67A172601001306463A9725010067
:100CA0009385C52817250100130545D6EFA0E05E02
:100CB0009706010093868679172601001306062BF6
:100CC000972501009385850F17250100130505D889
:100CD000EFA0A05C970601009386467817260100D6
:100CE0001306C6E5972501009385451417250100D5
:100CF0001305C509EFA0605A970601009386067791
:100D000017260100130686E197250100938505113A
:100D100017250100130585E5EFA02058970601006F
:100D20009386C67517260100130646DF9725010036
:100D30009385C5FB17250100130545DFEFA0E0559E
:100D4000970601009386867417260100130606A6EF
:100D500097250100938585DD17250100130505CA38
:100D6000EFA0A05397060100938646731726010053
:100D70001306C6DB97250100938545A917250100B9
:100D80001305C5C7EFA06051970601009386067250
:100D900017260100130686DA97250100938505DBE7
:100DA00017250100130585F6EFA0204F97060100D7
:100DB0009386C67017260100130646DB97250100AF
:100DC0009385C5D717250100130545F4EFA0E04C26
:100DD000970601009386866F172601001306069E6C
:100DE00097250100938585C017250100130505D6B9
:100DF000EFA0A04A970601009386466E17260100D1
:100E00001306C6D497250100938545BE172501001A
:100E10001305C5A1EFA06048970601009386066DF3
:100E200017260100130686C397250100938505D375
:100E30001725010013058587EFA0204697060100BE
:100E40009386C66B17260100130646E59725010019
:100E50009385C5D117250100130545FCEFA0E0439C
:100E6000970601009386866A17260100130606E995
:100E700097250100938585CF17250100130505EA05
:100E8000EFA0A0419706010093864669172601004E
:100E90001306C6CD97250100938545E5172501006A
:100EA0001305C5C7EFA0603F97060100938606684B
:100EB0001726010013068699972501009385059A48
:100EC00017250100130585CBEFA0203D97060100F3
:100ED0009386C666172601001306469A97250100D9
:100EE0009385C5CA172501001305459AEFA0E03A7E
:100EF000970601009386866517260100130606CA29
:100F000097250100938585E5171501001305057ADE
:100F1000EFA0A038970601009386466417260100CB
:100F20001306C6C397250100938545EB17150100ED
:100F30001305C577EFA06036970601009386066318
:100F4000172601001306869E97250100938505C686
:100F5000172501001305859EEFA020349706010098
:100F60009386C661172601001306469F9725010048
:100F70009385C59F17250100130545C4EFA0E031F7
:100F8000970601009386866017260100130606C4A3
:100F900097250100938585AA17250100130505A84B
:100FA000EFA0A02F970601009386465F1726010049
:100FB0001306C6C197250100938545A61725010094
:100FC0001305C5A6EFA0602D970601009386065E67
:100FD00017260100130686C0972501009385058A10
:100FE00017250100130585C0EFA0202B97060100EF
:100FF0009386C65C172601001306468897250100D4
:101000009385C58817250100130545BEEFA0E0288C
:10101000970601009386865B17260100130606BE1D
:1010200097250100938585BE1725010013050582CC
:10103000EFA0A026970601009386465A17260100C6
:101040001306C68097250100938545BC172501002E
:101050001305C580EFA0602497060100938606590A
:10106000172601001306868997250100938505BB85
:101070001725010013058589EFA02022970601009E
:101080009386C6571726010013064684972501004C
:101090009385C58417250100130545B9EFA0E01F0E
:1010A000970601009386865617260100130606B997
:1010B0009725010093858590172501001305059F4D
:1010C000EFA0A01D97060100938646551726010044
:1010D0001306C69D972501009385458F17250100AE
:1010E0001305C5B5EFA0601B970601009386065453
:1010F00017260100130686B5972501009385059CE8
:10110000172501001305858BEFA020199706010014
:101110009386C652172601001306469A97250100AA
:101120009385C5B21725010013054594EFA0E0167D
:10113000970601009386865117260100130606B212
:1011400097250100938585DF1715010013050578A4
:10115000EFA0A014970601009386465017260100C1
:101160001306C6B097150100938545791725010030
:101170001305C5DDEFA06012970601009386064FA8
:1011800017260100130686AF971501009385057A8F
:1011900017250100130585E6EFA020109706010032
:1011A0009386C64D17260100130646AE972501000B
:1011B0009385C5E3171501001305457AEFA0E00DEF
:1011C000970601009386864C1726010013060689B0
:1011D00097250100938585AC172501001305059817
:1011E000EFA0A00B970601009386464B172601003F
:1011F0001306C686972501009385458D17250100A6
:101200001305C5A9EFA06009970601009386064A59
:10121000172601001306868297250100938505D9BC
:1012200017250100130585A8EFA0200797060100E8
:101230009386C648172601001306468097250100AD
:101240009385C5A6171501001305457DEFA0E004A1
:10125000970601009386864717260100130606DCD1
:10126000971501009385857417250100130505A5C1
:10127000EFA0A002970601009386464617260100BC
:101280001306C6C797250100938545D01725010091
:101290001305C5D4EFA060009706010093860645AC
:1012A000171601001306867897250100938505A27D
:1012B00017250100130585CFEF90307E97060100BA
:1012C0009386C6431716010013064676971501004C
:1012D0009385C574172501001305459FEF90F07B9A
:1012E000970601009386864217260100130606D250
:1012F000972501009385859E171501001305056A42
:10130000EF90B079970601009386464117260100B9
:101310001306C6BD97250100938545CB172501000F
:101320001305C5C5EF9070779706010093860640B8
:10133000172601001306869C972501009385059BBF
:101340001725010013058582EF903075970601007F
:101350009386C63E171601001306464B97150100EB
:101360009385C57C1725010013054598EF90F07211
:10137000970601009386863D17160100130606495D
:10138000972501009385859617250100130505977C
:10139000EF90B070970601009386463C1726010037
:1013A0001306C6959715010093854565171501002D
:1013B0001305C545EF90706E970601009386063BB6
:1013C0001726010013068696971501009385057A66
:1013D0001725010013058593EF90306C97060100E7
:1013E0009386C63917160100130646449725010057
:1013F0009385C5911715010013054575EF90F069A8
:1014000097060100938686381716010013060641D9
:101410009725010093858590171501001305053A5E
:10142000EF90B067970601009386463717260100B4
:101430001306C68F971501009385453817250100BF
:101440001305C58DEF9070659706010093860636EB
:10145000171601001306863D972501009385058D1B
:10146000172501001305858AEF9030639706010068
:101470009386C634172601001306468B9715010084
:101480009385C53A1715010013054556EF90F06096
:101490009706010093868633172601001306069AE5
:1014A00097150100938585631725010013050589AC
:1014B000EF90B05E97060100938646321716010042
:1014C0001306C6509725010093854587171501001F
:1014D0001305C576EF90705C970601009386063180
:1014E0001726010013068696972501009385058629
:1014F000171501001305855FEF90305A970601001C
:101500009386C62F1716010013064656971501003D
:101510009385C5731725010013054583EF90F05798
:10152000970601009386862E171601001306065AA9
:10153000971501009385851717250100130505826E
:10154000EF90B055970601009386462D17260100AF
:101550001306C6839715010093854557171501009B
:101560001305C57FEF907053970601009386062CF4
:10157000172601001306869497250100938505AD73
:10158000171501001305857EEF9030519706010075
:101590009386C62A171601001306465997150100AF
:1015A0009385C54C171501001305457CEF90F04E4F
:1015B0009706010093868629172601001306068EDA
:1015C000971501009385857B17250100130505AA52
:1015D000EF90B04C9706010093864628171601003D
:1015E0001306C65697150100938545791715010016
:1015F0001305C53DEF90704A9706010093860627B4
:10160000171601001306867897150100938505507B
:101610001715010013058552EF9030489706010019
:101620009386C625171601001306464E971501002E
:101630009385C5751715010013054577EF90F045A3
:101640009706010093868624171601001306065597
:101650009715010093858574171501001305057012
:10166000EF90B043970601009386462317160100BA
:101670001306C67897150100938545481725010084
:101680001305C5A7EF9070419706010093860622C7
:10169000171601001306866F971501009385056CD8
:1016A0001715010013058570EF90303F9706010074
:1016B0009386C620171601001306466E9715010083
:1016C0009385C56F1715010013054569EF90F03C30
:1016D000970601009386861F1726010013060689C8
:1016E000971501009385856C171501001305056D8D
:1016F000EF90B03A970601009386461E1716010038
:101700001306C66C97150100938545411715010016
:101710001305C52CEF907038970601009386061DBF
:10172000171601001306862B971501009385056C8B
:101730001715010013058569EF90303697060100F3
:101740009386C61B17160100130646459715010020
:101750009385C5681715010013054564EF90F033B4
:10176000970601009386861A171601001306064392
:1017700097150100938585F317150100130505667C
:10178000EF90B031970601009386461917160100B5
:101790001306C6639715010093854565171501006B
:1017A0001305C563EF90702F970601009386061806
:1017B000171601001306865E9715010093850562D2
:1017C0001715010013058563EF90302D9706010072
:1017D0009386C61617160100130646789715010062
:1017E0009385C5611715010013054560EF90F02A38
:1017F0009706010093868615171601001306062228
:10180000971501009385854A17150100130505609A
:10181000EF90B02897060100938646141716010032
:101820001306C61F971501009385455E1715010025
:101830001305C549EF90702697060100938606139D
:10184000171601001306863197150100938505458B
:10185000171501001305855CEF90302497060100F1
:101860009386C611171601001306462F971501001F
:101870009385C55A1715010013054555EF90F021C2
:10188000970601009386861017160100130606249A
:10189000971501009385855917150100130505401B
:1018A000EF90B01F970601009386460F17160100B0
:1018B0001306C621971501009385454D17150100A4
:1018C0001305C556EF90701D970601009386060E0E
:1018D0001716010013068617971501009385055604
:1018E000171501001305855CEF90301B970601006A
:1018F0009386C60C171601001306465A9715010069
:101900009385C5531715010013054543EF90F01853
:10191000970601009386860B171601001306061E14
:10192000971501009385855A171501001305055277
:10193000EF90B016970601009386460A171601002D
:101940001306C657971501009385454017150100EA
:101950001305C54FEF907014970601009386060992
:101960001716010013068664971501009385056A12
:10197000171501001305854FEF90301297060100EF
:101980009386C607171601001306466297150100D5
:101990009385C54D1715010013054568EF90F00FAD
:1019A0009706010093868606171601001306064C5B
:1019B000971501009385854A17150100130505FF4A
:1019C000EF90B00D970601009386460517160100AB
:1019D0001306C64997150100938545FC17150100AC
:1019E0001305C547EF90700B970601009386060418
:1019F00017160100130686FE97150100938505480A
:101A0000171501001305853EEF9030099706010078
:101A10009386C60217160100130646359715010076
:101A20009385C54517150100130545FBEF90F0069A
:101A30009706010093868601171601001306060D0E
:101A40009715010093858536171501001305054488
:101A5000EF90B00497060100938646001716010028
:101A60001306C631971501009385450A1715010025
:101A70001305C541EF90700297060100938606FF9B
:101A800017160100130686F4971501009385052F9C
:101A90001715010013058540EF90300097060100EF
:101AA0009386C6FD17160100130646F2971501002E
:101AB0009385C53E1715010013054528EF90E07D7D
:101AC00097060100938686FC171601001306065A36
:101AD000971501009385853D171501001305053CF9
:101AE000EF90A07B97060100938646FB1716010036
:101AF0001306C6F7971501009385453C171501009D
:101B00001305C526EF90607997060100938606FAC3
:101B100017160100130686F5971501009385052316
:101B20001715010013058539EF90207797060100FE
:101B30009386C6F817160100130646519715010043
:101B40009385C5371715010013054538EF90E074EC
:101B500097060100938686F71716010013060638CC
:101B6000971501009385850E17150100130505587B
:101B7000EF90A07297060100938646F617160100B3
:101B80001306C635971501009385455617150100B4
:101B90001305C50AEF90607097060100938606F55D
:101BA0001716010013068609971501009385053461
:101BB0001715010013058532EF90206E970601007E
:101BC0009386C6F317160100130646079715010002
:101BD0009385C5F01715010013054531EF90E06BB3
:101BE00097060100938686F2171601001306060673
:101BF000971501009385852E1715010013050530F3
:101C0000EF90A06997060100938646F11716010030
:101C10001306C603971501009385452E171501007D
:101C20001305C5ECEF90606797060100938606F0F8
:101C3000171601001306864C97150100938505ECD5
:101C4000171501001305852CEF90206597060100FC
:101C50009386C6EE171601001306464A9715010033
:101C60009385C52A17150100130545DEEF90E06244
:101C700097060100938686ED17160100130606DD10
:101C8000971501009385852817150100130505296F
:101C9000EF90A06097060100938646EC17160100AE
:101CA0001306C6DA9715010093854527171501001D
:101CB0001305C518EF90605E97060100938606EB4A
:101CC00017160100130686E3971501009385052674
:101CD0001715010013058523EF90205C970601007E
:101CE0009386C6E917160100130646E19715010011
:101CF0009385C5151715010013054523EF90E0598D
:101D000097060100938686E817160100130606BCA5
:101D1000971501009385852217150100130505BC51
:101D2000EF90A05797060100938646E7171601002B
:101D30001306C6BC97150100938545BD1715010014
:101D40001305C520EF90605597060100938606E6BF
:101D500017160100130686209715010093850509C3
:101D60001715010013058511EF9020539706010008
:101D70009386C6E4171601001306461F9715010047
:101D80009385C5101715010013054502EF90E0502B
:101D900097060100938686E317160100130606F4E2
:101DA000971501009385851F171501001305051D63
:101DB000EF90A04E97060100938646E217160100A9
:101DC0001306C61B97150100938545BD1715010025
:101DD0001305C5F0EF90604C97060100938606E16D
:101DE00017160100130686ED971501009385051A55
:101DF000171501001305851AEF90204A9706010078
:101E00009386C6DF171601001306461897150100C2
:101E10009385C5EA17150100130545B9EF90E04712
:101E200097060100938686DE171601001306061733
:101E300097150100938585C417150100130505E862
:101E4000EF90A04597060100938646DD1716010026
:101E50001306C61497150100938545E81715010070
:101E60001305C5C1EF90604397060100938606DC19
:101E70001716010013068682971501009385051336
:101E800017150100130585BBEF902041970601004F
:101E90009386C6DA171601001306468097150100CF
:101EA0009385C5B81715010013054510EF90E03E66
:101EB00097060100938686D917160100130606FAC5
:101EC000971501009385850F17150100130505115E
:101ED000EF90A03C97060100938646D817160100A4
:101EE0001306C6F7971501009385450E17150100D7
:101EF0001305C50CEF90603A97060100938606D74C
:101F000017160100130686A997150100938505078A
:101F1000171501001305850BEF9020389706010077
:101F20009386C6D5171601001306460A97150100B9
:101F30009385C5F217150100130545A6EF90E0350E
:101F400097060100938686D417160100130606A68D
:101F500097150100938585081715010013050503E2
:101F6000EF90A03397060100938646D31716010021
:101F70001306C60697150100938545A317150100A2
:101F80001305C5EDEF90603197060100938606D2E8
:101F9000171601001306869C971501009385050509
:101FA000171501001305859CEF90202F970601005F
:101FB0009386C6D0171601001306469797150100A1
:101FC0009385C5971715010013054503EF90E02C85
:101FD00097060100938686CF17160100130606CFD9
:101FE00097150100938585AB1715010013050502B0
:101FF000EF90A02A97060100938646CE171601009F
:102000001306C60097150100938545FA17150100C0
:102010001305C5CBEF90602897060100938606CD87
:1020200017160100130686C897150100938505FF52
:1020300017150100130585A5EF90202697060100CE
:102040009386C6CB17160100130646FD97150100AF
:102050009385C5C517150100130545F5EF90E023DD
:1020600097060100938686CA17160100130606DA42
:1020700097150100938585A117150100130505FB30
:10208000EF90A02197060100938646C9171601001C
:102090001306C6D797150100938545F9171501005A
:1020A0001305C59FEF90601F97060100938606C831
:1020B00017160100130686E797150100938505F8AA
:1020C00017150100130585E4EF90201D9706010008
:1020D0009386C6C617160100130646E4971501003D
:1020E0009385C5E217150100130545F5EF90E01A39
:1020F00097060100938686C517160100130606D8B9
:1021000097150100938585F417150100130505F552
:10211000EF90A01897060100938646C41716010099
:102120001306C6F297150100938545D517150100D2
:102130001305C5C3EF90601697060100938606C38A
:1021400017160100130686F197150100938505D82F
:10215000171501001305859AEF90201497060100CA
:102160009386C6C117160100130646D297150100C3
:102170009385C5F017150100130545EFEF90E011A9
:1021800097060100938686C017160100130606EE17
:1021900097150100938585BE17150100130505CF1E
:1021A000EF90A00F97060100938646BF1716010017
:1021B0001306C6EC97150100938545891715010094
:1021C0001305C5CEEF90600D97060100938606BEFD
:1021D000170601001306866E970501009385056FAB
:1021E00017150100130585EAEF90200B97060100F3
:1021F0009386C6BC170601001306467597050100B5
:102200009385C57517150100130545E9EF90E008A2
:1022100097060100938686BB170601001306066524
:1022200097150100938585E81705010013050565DD
:10223000EF90A00697060100938646BA17060100A4
:102240001306C66D97150100938545E71705010034
:102250001305C56DEF90600497060100938606B9DB
:10226000170601001306865D970501009385055E3C
:1022700017150100130585E5EF9020029706010070
:102280009386C6B717060100130646669715010028
:102290009385C5E41705010013054566EF80F07FBF
:1022A00097060100938686B617160100130606E40A
:1022B0009715010093858599170501001305057091
:1022C000EF80B07D97060100938646B51716010092
:1022D0001306C6E1970501009385456E17150100A9
:1022E0001305C595EF80707B97060100938606B4B1
:1022F00017160100130686AA97150100938505B0ED
:1023000017150100130585DFEF803079970601006E
:102310009386C6B217160100130646A8971501004A
:102320009385C5DD17150100130545A9EF80F076EB
:1023300097060100938686B117160100130606DD85
:10234000970501009385855D171501001305059319
:10235000EF80B07497060100938646B0171601000F
:102360001306C6DB970501009385455B1715010031
:102370001305C5D9EF80707297060100938606AFEA
:1023800017160100130686DA970501009385054E9E
:102390001715010013058584EF8030709706010042
:1023A0009386C6AD17160100130646D9970501009E
:1023B0009385C54B17150100130545D7EF80F06DC8
:1023C00097060100938686AC17160100130606D8FF
:1023D000970501009385854617150100130505CF64
:1023E000EF80B06B97060100938646AB171601008D
:1023F0001306C6D697150100938545D7171501001A
:102400001305C5D7EF80706997060100938606AA69
:102410001716010013068681970501009385054C68
:1024200017150100130585D6EF8030679706010068
:102430009386C6A817060100130646749705010087
:102440009385C54117150100130545D5EF80F0644C
:1024500097060100938686A717160100130606D576
:1024600097150100938585D317150100130505D530
:10247000EF80B06297060100938646A6171601000A
:102480001306C6D4970501009385456F1715010003
:102490001305C5D4EF80706097060100938606A5EA
:1024A00017160100130686D497150100938505D5EC
:1024B00017150100130585D5EF80305E97060100E2
:1024C0009386C6A317160100130646D5971501007B
:1024D0009385C5D617150100130545D5EF80F05B30
:1024E00097060100938686A217160100130606D6EA
:1024F00097150100938585D617150100130505D79B
:10250000EF80B05997060100938646A11716010087
:102510001306C6D697150100938545D717150100F8
:102520001305C5D7EF80705797060100938606A064
:102530001706010013068668970501009385054379
:1025400017150100130585D6EF8030559706010059
:102550009386C69E17160100130646D697150100EE
:102560009385C5D617150100130545B7EF80F052C6
:10257000970601009386869D17160100130606B282
:10258000970501009385856317150100130505D58F
:10259000EF80B050970601009386469C1716010005
:1025A0001306C6D497150100938545D5171501006C
:1025B0001305C5AFEF80704E970601009386069B0A
:1025C00017160100130686D697150100938505D4CA
:1025D00017150100130585D4EF80304C97060100D4
:1025E0009386C69917160100130646D69715010063
:1025F0009385C5D417150100130545D6EF80F04922
:10260000970601009386869817160100130606D6D2
:1026100097150100938585D617150100130505D779
:10262000EF80B04797060100938646971716010082
:102630001306C6D697150100938545D717050100E7
:102640001305C556EF8070459706010093860696E0
:1026500017160100130686D69705010093850560BD
:102660001705010013058525EF803043970601000B
:102670009386C69417160100130646D597150100D8
:102680009385C5D31705010013054523EF80F0405E
:10269000970601009386869317160100130606D647
:1026A00097150100938585D317150100130505D4EF
:1026B000EF80B03E97060100938646921716010000
:1026C0001306C6D497150100938545D5170501005B
:1026D0001305C54BEF80703C970601009386069169
:1026E00017160100130686D497150100938505D5AA
:1026F00017150100130585D5EF80303A97060100C4
:102700009386C68F17160100130646D5971501004C
:102710009385C5D617150100130545D5EF80F03711
:10272000970601009386868E17160100130606D6BB
:1027300097150100938585D717150100130505D658
:10274000EF80B03597060100938646891716010081
:102750001306C69597150100938545D61705010008
:102760001305C542EF807033970601009386068BF0
:1027700017160100130686D697150100938505D715
:1027800017150100130585D4EF803031970601003D
:102790009386C68917160100130646D697150100C1
:1027A0009385C5D717150100130545D6EF80F02E88
:1027B000970601009386868817160100130606D730
:1027C000971501009385859017150100130505D70E
:1027D000EF80B02C970601009386468717160100FC
:1027E0001306C6D697150100938545D81715010025
:1027F0001305C5D6EF80702A9706010093860686DA
:1028000017160100130686B397150100938505D7A7
:1028100017150100130585B4EF80302897060100D5
:102820009386C68417160100130646B1971501005A
:102830009385C5B117150100130545D5EF80F02527
:10284000970601009386868317160100130606B1CA
:1028500097150100938585D417150100130505AF61
:10286000EF80B02397060100938646821716010079
:102870001306C6D297150100938545AE17150100C2
:102880001305C5D2EF80702197060100938606815B
:1028900017160100130686D197150100938505AC24
:1028A00017150100130585D1EF80301F97F6000042
:1028B0009386C67F17060100130646379715010059
:1028C0009385C58C17150100130545D0EF80F01CCA
:1028D00097F600009386867E17160100130606D031
:1028E00097150100938585D117150100130505D0B3
:1028F000EF80B01A97F600009386467D1716010008
:102900001306C6D097150100938545D2171501000F
:102910001305C5D0EF80701897F600009386067CEB
:10292000170601001306862897150100938505D127
:102930001705010013058500EF80301697F600009B
:102940009386C67A170601001306462697150100DE
:102950009385C5CF17150100130545CEEF80F01301
:1029600097F600009386867917160100130606ADC8
:1029700097150100938585CF17150100130505CE26
:10298000EF80B01197F60000938646781716010085
:102990001306C6CE97150100938545A617150100AD
:1029A0001305C5A4EF80700F97F600009386067795
:1029B00017160100130686A397150100938505CD10
:1029C00017150100130585CBEF80300D97F6000039
:1029D0009386C67517160100130646CC971501009D
:1029E0009385C5AF17150100130545CCEF80F00A9C
:1029F00097F600009386867417160100130606CC1E
:102A000097150100938585CC17150100130505CD99
:102A1000EF80B00897F60000938646731706010012
:102A20001306C61F97150100938545CC17050100B5
:102A30001305C5EDEF80700697F6000093860672C9
:102A400017160100130686CB97150100938505CC58
:102A500017150100130585C9EF80300497F60000B3
:102A60009386C67017160100130646CB9715010012
:102A70009385C5CB1705010013054564EF80F00170
:102A800097F600009386866F17160100130606CB93
:102A900097150100938585CC17150100130505CB0B
:102AA000EF80A07F97F600009386466E1716010010
:102AB0001306C6CB97150100938545CD1715010068
:102AC0001305C5CBEF80607D97F600009386066DF9
:102AD00017160100130686CC97150100938505CEC5
:102AE00017150100130585CCEF80207B97F60000B9
:102AF0009386C66B170601001306467097150100F2
:102B00009385C5CD17150100130545CCEF80E078FE
:102B100097F600009386866A17160100130606CD05
:102B2000970501009385855717150100130505CDFD
:102B3000EF80A07697F6000093864669171601008D
:102B40001306C6CC97050100938545E017050100E3
:102B50001305C554EF80607497F600009386063F16
:102B600017160100130686CB97050100938505050E
:102B700017150100130585CBEF80207297F6000032
:102B80009386C66517160100130646CB970501000C
:102B90009385C57117150100130545CBEF80E06FD4
:102BA00097F6000093868664170601001306060157
:102BB000970501009385856F17150100130505CA58
:102BC000EF80A06D97F6000093864663171601000C
:102BD0001306C6C9970501009385454B17150100DB
:102BE0001305C5C9EF80606B97F6000093860662F7
:102BF00017160100130686C997050100938505CCB9
:102C00001705010013058548EF80206997F600003D
:102C10009386C66017160100130646C89705010083
:102C20009385C50017150100130545C8EF80E066C0
:102C300097F600009386865E170601001306064588
:102C400097050100938585FE17150100130505C73B
:102C5000EF80A06497F600009386465D171601008A
:102C60001306C6C697050100938545521715010046
:102C70001305C5C6EF80606297F6000093860626AE
:102C8000170601001306864497050100938505EF9A
:102C900017150100130585C5EF80206097F6000029
:102CA0009386C65917060100130646ED97050100E5
:102CB0009385C54E17150100130545C4EF80E05DEF
:102CC00097F600009386865817160100130606C46F
:102CD00097050100938585FB17050100130505C7BE
:102CE000EF80A05B97F60000938646571716010009
:102CF0001306C6C297150100938545C1170501004B
:102D00001305C5C4EF80605997F6000093860656F8
:102D100017160100130686C197050100938505EE7D
:102D200017050100130585B1EF80205797F60000C5
:102D30009386C65417160100130646C09715010066
:102D40009385C5BE17050100130545AFEF80E0541C
:102D500097F6000093868653171601001306069314
:102D6000970501009385856817150100130505BEB9
:102D7000EF80A05297F60000938646521716010086
:102D80001306C6BC9705010093854566171501001B
:102D90001305C5BCEF80605097F60000938606517E
:102DA00017160100130686BC97150100938505BD13
:102DB00017150100130585BDEF80204E97F6000022
:102DC0009386C64F17160100130646BD97150100DE
:102DD0009385C5BD17150100130545BEEF80E04B77
:102DE00097F600009386864E17160100130606BE5E
:102DF00097150100938585BE17150100130505BFC2
:102E0000EF80A04997F600009386464D1716010003
:102E10001306C6BE97150100938545BF171501001F
:102E20001305C5BFEF80604797F600009386064CF8
:102E300017160100130686BF97150100938505C07C
:102E4000170501001305854EEF80204597F6000019
:102E50009386C64A170601001306467097150100AF
:102E60009385C5BE17150100130545BFEF80E042ED
:102E700097F600009386864917160100130606BFD1
:102E8000970501009385852317050100130505A902
:102E9000EF80A04097F600009386461017060100C9
:102EA0001306C62197150100938545BD170501003E
:102EB0001305C5CFEF80603E97F600009386064667
:102EC00017160100130686BC97150100938505BDF2
:102ED0001705010013058576EF80203C97F600006A
:102EE0009386C64417160100130646BC97050100D9
:102EF0009385C51E170501001305459FEF80E03936
:102F000097F600009386864317160100130606BB4A
:102F100097150100938585BB17050100130505D0A2
:102F2000EF80A03797F6000093864642170601000F
:102F30001306C61A97150100938545BA17050100B7
:102F40001305C5CDEF80603597F6000093860641E6
:102F500017060100130686CC97150100938505B965
:102F60001705010013058578EF80203397F60000E0
:102F70009386C63F17160100130646B89705010051
:102F80009385C512170501001305458EEF80E030CB
:102F900097F600009386863E17060100130606BFCB
:102FA00097150100938585B6170501001305058E59
:102FB000EF80A02E97F600009386463D171601007D
:102FC0001306C6B597150100938545B61715010080
:102FD0001305C5B3EF80602C97F600009386063C7E
:102FE00017060100130686BA97150100938505B5EB
:102FF00017150100130585B1EF80202A97F6000010
:103000009386C63A171601001306469497150100D9
:103010009385C5B31705010013054567EF80E027C9
:1030200097F600009386863917160100130606B33B
:10303000970501009385858B17050100130505C3CE
:10304000EF80A02597F600009386463817160100FA
:103050001306C6B197050100938545891715010030
:103060001305C5AFEF80602397F6000093860637FF
:1030700017160100130686B297150100938505B057
:1030800017150100130585B0EF80202197F6000089
:103090009386C63517160100130646B19715010031
:1030A0009385C5B117150100130545AFEF80E01EEC
:1030B00097F600009386863417F600001306066123
:1030C00097F500009385856117F5000013050571DC
:1030D000EF80A01C97F600009386463317F6000099
:1030E0001306C65E97F500009385456F17F500003F
:1030F0001305C55EEF80601A97F6000093860632CE
:1031000017F600001306865F97F500009385056C9F
:1031100017F500001305855FEF80201897F6000073
:103120009386C63017F600001306465D97F500003B
:103130009385C55D17F5000013054569EF80E0151F
:1031400097F600009386862F17F600001306066593
:1031500097F500009385855C17F500001305055D64
:10316000EF80A01397F600009386462E17F6000016
:103170001306C66297F500009385455B17F50000BE
:103180001305C559EF80601197F600009386062D50
:1031900017F600001306865F97F500009385055C1F
:1031A00017F500001305855AEF80200F97F60000F1
:1031B0009386C62B17F600001306465D97F50000B0
:1031C0009385C55817F5000013054559EF80E00CAD
:1031D00097F600009386862417F600001306065221
:1031E00097F500009385855217F5000013050558E3
:1031F000EF80A00A97F600009386462317F600009A
:103200001306C64F97F500009385455617F5000045
:103210001305C54FEF80600897F600009386061EE1
:1032200017F600001306864A97F5000093850555AA
:1032300017F500001305854AEF80200697F6000079
:103240009386C61C17F600001306464897F5000043
:103250009385C54817F5000013054552EF80E0033C
:1032600097F600009386862117F600001306065293
:1032700097F500009385854C17F500001305054E62
:10328000EF80A00197F600009386462017F6000015
:103290001306C64F97F500009385454C17F50000BF
:1032A0001305C549EF70707F97F600009386061FDF
:1032B00017F600001306864E97F500009385054724
:1032C00017F500001305853CEF70307D97F6000080
:1032D0009386C61D17F600001306464C97F50000AE
:1032E0009385C53A17F5000013054544EF70F07A51
:1032F00097F600009386861C17F600001306064614
:1033000097F500009385854317F500001305054ADE
:10331000EF70B07897F600009386461B17F6000012
:103320001306C64397F500009385454817F500003E
:103330001305C540EF70707697F600009386061A65
:1033400017F600001306863E97F5000093850547A3
:1033500017F5000013058533EF70307497F6000001
:103360009386C61817F600001306463C97F5000032
:103370009385C53117F5000013054544EF70F071D2
:1033800097F600009386860917F6000013060636A6
:1033900097F500009385854317F500001305053662
:1033A000EF70B06F97F600009386461517F6000091
:1033B0001306C63397F500009385456317F50000A3
:1033C0001305C540EF70706D97F6000093860606F2
:1033D00017F600001306863197F500009385053235
:1033E00017F500001305853EEF70306B97F600006F
:1033F0009386C61117F600001306462F97F50000B6
:103400009385C53C17F500001305455EEF70F06825
:1034100097F60000938686FE17F600001306062A2C
:1034200097F500009385852A17F500001305053BE5
:10343000EF70B06697F600009386460E17F6000010
:103440001306C62797F500009385453917F5000048
:103450001305C55AEF70706497F60000938606FB5B
:1034600017F600001306862597F5000093850537AB
:1034700017F5000013058525EF70306297F6000000
:103480009386C60A17F600001306462397F5000038
:103490009385C55617F5000013054534EF70F05FAE
:1034A00097F600009386860917F600001306063487
:1034B00097F500009385852617F500001305052E66
:1034C000EF70B05D97F600009386460817F600008F
:1034D0001306C63197F500009385452C17F50000BB
:1034E0001305C523EF70705B97F6000093860607FF
:1034F00017F600001306863097F50000938505291E
:1035000017F5000013058524EF70305997F6000079
:103510009386C60517F600001306462E97F50000A1
:103520009385C52217F5000013054526EF70F05668
:1035300097F600009386860417F600001306062D02
:1035400097F500009385851717F500001305054BC7
:10355000EF70B05497F600009386460317F600000C
:103560001306C62A97F500009385454917F5000014
:103570001305C514EF70705297F60000938606028B
:1035800017F600001306862A97F500009385054676
:1035900017F5000013058515EF70305097F6000001
:1035A0009386C60017F600001306462897F500001C
:1035B0009385C51317F5000013054543EF70F04DD3
:1035C00097F60000938686E317F600001306061BA5
:1035D00097F500009385852C17F50000130505105D
:1035E000EF70B04B97F60000938646E217F60000A6
:1035F0001306C61897F500009385450E17F50000D1
:103600001305C529EF70704997F60000938606E10F
:1036100017F600001306861597F500009385050F31
:1036200017F5000013058528EF70304797F6000066
:103630009386C6DF17F600001306461397F50000C1
:103640009385C52617F500001305450CEF70F0446F
:1036500097F60000938686F617F600001306061903
:1036600097F500009385853117F500001305050BCC
:10367000EF70B04297F60000938646F517F600000B
:103680001306C61697F500009385450917F5000047
:103690001305C52EEF70704097F60000938606F470
:1036A00017F600001306861597F500009385050AA6
:1036B00017F500001305852DEF70303E97F60000DA
:1036C0009386C6F217F600001306461397F500001E
:1036D0009385C52B17F5000013054507EF70F03BE8
:1036E00097F60000938686F117F600001306060D84
:1036F00097F500009385850317F500001305052F46
:10370000EF70B03997F60000938646F017F6000088
:103710001306C60A97F500009385452D17F500009E
:103720001305C500EF70703797F60000938606EF1B
:1037300017F600001306860797F500009385052C01
:1037400017F5000013058501EF703035B24097F68C
:1037500000009386A6ED17F600001306260597F5E0
:1037600000009385A5FF17F50000130525294101E9
:103770006F70B032411197B600009386266C17D651
:1037800000001306A63C97D500009385252717D582
:1037900000001305A55A06C6EF70303097B600003A
:1037A0009386C66A17D600001306465A97D50000BE
:1037B0009385C5F817D500001305451FEF70F02D50
:1037C00097B600009386866917D60000130606DBBD
:1037D00097D500009385856317D50000130505FF75
:1037E000EF70B02B97B600009386466817D600009E
:1037F0001306C6FB97D500009385454F17D50000EB
:103800001305C5FCEF70702997B600009386066714
:1038100017D600001306861397D50000938505E799
:1038200017D5000013058530EF70302797B60000DC
:103830009386C66517D600001306461297D500007A
:103840009385C52E17D500001305453CEF70F02475
:1038500097B600009386866417D600001306062AE2
:1038600097D500009385853C17D50000130505F317
:10387000EF70B02297B600009386466317D600001B
:103880001306C63497D500009385453317D500003D
:103890001305C514EF70702097B60000938606627A
:1038A00017D60000130686FB97D5000093850520E8
:1038B00017D500001305854AEF70301E97B600003B
:1038C0009386C66017D60000130646CE97D5000033
:1038D0009385C52A17D5000013054511EF70F01B1D
:1038E00097B600009386865F17D60000130606671A
:1038F00097D500009385852417D50000130505DAB8
:10390000EF70B01997B600009386465E17D6000098
:103910001306C6D897D50000938545E517D5000056
:103920001305C5BCEF70701797B600009386065D4F
:1039300017D60000130686FA97D50000938505E098
:1039400017D5000013058540EF70301597B60000BD
:103950009386C65B17D60000130646C297D50000B3
:103960009385C5F017D50000130545DEEF70F01202
:1039700097B600009386865A17D6000013060630C5
:1039800097D50000938585EE17D50000130505BF78
:10399000EF70B01097B600009386465917D6000016
:1039A0001306C6F397D500009385454517D500004B
:1039B0001305C5D8EF70700E97B6000093860658B1
:1039C00017D60000130686FC97D5000093850530B6
:1039D00017D5000013058511EF70300C97B6000065
:1039E0009386C65617D60000130646FA97D50000F0
:1039F0009385C50E17D50000130545B9EF70F00982
:103A000097B600009386865517D60000130606BAAF
:103A100097D50000938585B617D50000130505D30B
:103A2000EF70B00797B600009386465417D6000093
:103A30001306C62397D50000938545B417D500001B
:103A40001305C5F7EF70700597B60000938606530F
:103A500017D60000130686B697D50000938505E9B2
:103A600017D50000130585E3EF70300397B600000B
:103A70009386C65117D60000130646FD97D5000061
:103A80009385C51E17D5000013054504EF70F0009F
:103A900097B600009386865017D60000130606E2FC
:103AA00097D500009385850217D50000130505D032
:103AB000EF70A07E97B600009386464F17D60000A1
:103AC0001306C6B297D50000938545C017D50000F0
:103AD0001305C5C5EF70607C97B600009386064E4F
:103AE00017D600001306862997D500009385052D6B
:103AF00017D50000130585E4EF70207A97B6000013
:103B00009386C64C17D60000130646C097D5000012
:103B10009385C50817D5000013054522EF70E0779F
:103B200097B600009386864B17D60000130606E86A
:103B300097D500009385853717D500001305052715
:103B4000EF70A07597B600009386464A17D600001E
:103B50001306C61997D50000938545FF17D50000B9
:103B60001305C5C6EF70607397B6000093860649CB
:103B700017D600001306862497D50000938505C646
:103B800017D50000130585DBEF70207197B6000094
:103B90009386C64717D60000130646FC97D500004B
:103BA0009385C5E217D500001305451CEF70E06E44
:103BB00097B600009386864617D600001306063493
:103BC00097D500009385852A17D500001305053D7C
:103BD000EF70A06C97B600009386464517D600009C
:103BE0001306C62097D50000938545F817D5000029
:103BF0001305C524EF70606A97B6000093860644EB
:103C000017D60000130686AF97D50000938505E10F
:103C100017D500001305851BEF70206897B60000CC
:103C20009386C64217D600001306461897D50000A3
:103C30009385C52717D50000130545A0EF70E065F3
:103C400097B600009386864117D600001306069F9C
:103C500097D500009385859217D50000130505269A
:103C6000EF70A06397B600009386464017D6000019
:103C70001306C6E797D50000938545D017D50000F9
:103C80001305C512EF70606197B600009386063F7A
:103C900017D600001306861097D50000938505A35C
:103CA00017D50000130585E3EF70205F97B600007D
:103CB0009386C63D17D60000130646DA97D5000056
:103CC0009385C59817D500001305458AEF70E05C11
:103CD00097B600009386863C17D60000130606D6DA
:103CE00097D50000938585DD17D50000130505F9EC
:103CF000EF70A05A97B600009386463B17D6000097
:103D00001306C68197D50000938545B817D50000E6
:103D10001305C5B9EF70605897B600009386063A50
:103D200017D600001306868097D50000938505D727
:103D300017D500001305858AEF70205697B600004E
:103D40009386C63817D60000130646D897D50000CC
:103D50009385C5B617D50000130545CFEF70E05326
:103D600097B600009386863717D600001306069193
:103D700097D500009385859B17D50000130505890D
:103D8000EF70A05197B600009386463617D6000014
:103D90001306C69997D50000938545DB17D500001B
:103DA0001305C586EF70604F97B600009386063501
:103DB00017D600001306868D97D50000938505B9A8
:103DC00017D50000130585C6EF70204D97B600008B
:103DD0009386C63317D600001306468B97D500008E
:103DE0009385C5C417D500001305458BEF70E04AD5
:103DF00097B600009386863217D60000130606A2F7
:103E000097D500009385858817D50000130505898F
:103E1000EF70A04897B600009386463117D6000091
:103E20001306C68697C500009385456B17D500001D
:103E30001305C59FEF70604697B600009386063065
:103E400017D60000130686C297D500009385058615
:103E500017D50000130585DCEF70204497B60000ED
:103E60009386C62E17D60000130646DB97D50000B2
:103E70009385C59217D50000130545DBEF70E0412F
:103E800097B600009386862D17D60000130606838A
:103E900097C500009385856117C500001305057E51
:103EA000EF70A03F97B600009386462C17D600000F
:103EB0001306C6AF97C500009385455F17C5000080
:103EC0001305C57FEF70603D97B600009386062B03
:103ED00017C600001306867F97C500009385056B03
:103EE00017D50000130585BFEF70203B97B6000083
:103EF0009386C62917C600001306466A97C50000B8
:103F00009385C56817D50000130545DBEF70E038D1
:103F100097B600009386862817D60000130606027F
:103F200097D50000938585D117D50000130505CCE2
:103F3000EF70A03697B600009386462717D600008C
:103F40001306C6AA97C500009385457A17C50000D9
:103F50001305C565EF70603497B60000938606269A
:103F600017C600001306866497C500009385057880
:103F700017D50000130585C3EF70203297B60000F7
:103F80009386C62417D60000130646B897D50000BE
:103F90009385C5A717D50000130545C9EF70E02F1D
:103FA00097B600009386862317C600001306067F87
:103FB00097D50000938585A217D50000130505B499
:103FC000EF70A02D97B600009386462217D600000A
:103FD0001306C6BD97D500009385459F17C5000001
:103FE0001305C571EF70602B97B60000938606210C
:103FF00017D60000130686A297C5000093850570AA
:1040000017D50000130585B8EF70202997B600007A
:104010009386C61F17C600001306466E97C500009C
:104020009385C56E17D50000130545B8EF70E026DF
:1040300097B600009386861E17D60000130606A7C3
:1040400097C500009385856B17D50000130505F40F
:10405000EF70A02497B600009386461D17C6000097
:104060001306C66B97C500009385456A17C5000007
:104070001305C568EF70602297B600009386061C92
:1040800017C600001306866997C50000938505676B
:1040900017D50000130585A1EF70202097B600000A
:1040A0009386C61A17C600001306467997C5000006
:1040B0009385C55317C500001305453FEF70E01DFC
:1040C00097B600009386861917C600001306063EB1
:1040D00097C500009385855117C500001305055A43
:1040E000EF70A01B97B600009386461817C6000015
:1040F0001306C64897C500009385456417D5000090
:104100001305C5CFEF70601997B6000093860617A8
:1041100017C600001306865297D50000938505D96F
:1041200017C5000013058545EF70201797B60000EE
:104130009386C61517D60000130646DD97D50000F6
:104140009385C5A317C500001305457EEF70E014E5
:1041500097B600009386861417D6000013060685CE
:1041600097D50000938585BF17C50000130505711D
:10417000EF70A01297B600009386461317C6000092
:104180001306C65197C500009385453C17C500002E
:104190001305C55DEF70601097B600009386061298
:1041A00017D60000130686A597C500009385055C09
:1041B00017C5000013058539EF70200E97B6000073
:1041C0009386C61017C600001306466497D50000F4
:1041D0009385C5A317D5000013054585EF70E00B47
:1041E00097B600009386860F17D60000130606A127
:1041F00097C500009385853517D5000013050594F4
:10420000EF70A00997B600009386460E17C600000F
:104210001306C64997C500009385455717C500008A
:104220001305C533EF70600797B600009386060D3F
:1042300017D60000130686AA97C50000938505329D
:1042400017C5000013058554EF70200597B60000D0
:104250009386C60B17C600001306467B97D5000051
:104260009385C59517D500001305459CEF70E002B6
:1042700097B600009386860A17D60000130606A696
:1042800097C500009385857E17C500001305052D91
:10429000EF70A00097B600009386460917C600008D
:1042A0001306C67D97C500009385454017C50000DD
:1042B0001305C54EEF60707E97B600009386060822
:1042C00017D600001306869097C500009385053E1B
:1042D00017D500001305858EEF60307C97B600007F
:1042E0009386C60617C600001306462F97C5000022
:1042F0009385C57A17C500001305454BEF60F0792B
:1043000097B600009386860517C600001306064A76
:1043100097C500009385854B17D50000130505AFA1
:10432000EF60B07797B600009386460417C600008A
:104330001306C64897D500009385458117D5000020
:104340001305C59FEF60707597B60000938606034E
:1043500017D600001306869397D500009385058431
:1043600017D50000130585B8EF60307397B60000CD
:104370009386C60117D60000130646A297C5000013
:104380009385C52B17D50000130545B3EF60F0707A
:1043900097B600009386860017D60000130606A085
:1043A00097D50000938585B117C500001305057AE0
:1043B000EF60B06E97B60000938646FF17C6000008
:1043C0001306C64197D50000938545AB17D500006D
:1043D0001305C5A0EF60706C97B60000938606FECB
:1043E00017D600001306868C97D500009385058BA1
:1043F00017D50000130585B4EF60306A97B600004A
:104400009386C6FC17C600001306467697D50000B3
:104410009385C5B617D50000130545A2EF60F06778
:1044200097B60000938686FB17D600001306068E0B
:1044300097C500009385850917C500001305051968
:10444000EF60B06597B60000938646FA17D6000075
:104450001306C6A897D50000938545A317C500008D
:104460001305C546EF60706397B60000938606F9A2
:1044700017C600001306861F97D500009385058B8D
:1044800017C500001305851DEF60306197B6000069
:104490009386C6F717C600001306460A97D5000094
:1044A0009385C5AC17C5000013054536EF60F05E77
:1044B00097B60000938686F617C6000013060667B7
:1044C00097C500009385854917C500001305054869
:1044D000EF60B05C97B60000938646F517C6000003
:1044E0001306C61A97C500009385453317C500000B
:1044F0001305C5FEEF60705A97B60000938606F468
:1045000017C60000130686FD97C500009385053188
:1045100017C5000013058531EF60305897B60000CD
:104520009386C6F217C600001306466197C50000C1
:104530009385C52F17C5000013054516EF60F0558C
:1045400097B60000938686F117C60000130606157D
:1045500097C500009385852D17C500001305052C10
:10456000EF60B05397B60000938646F017C6000080
:104570001306C64097C500009385452C17C500005B
:104580001305C5F2EF60705197B60000938606EFF1
:1045900017C600001306863E97C5000093850505E3
:1045A00017C5000013058529EF60304F97B600004E
:1045B0009386C6ED17C600001306462297D5000065
:1045C0009385C58117C5000013054559EF60F04C70
:1045D00097B60000938686EC17C6000013060628DF
:1045E00097C500009385856A17C500001305054C23
:1045F000EF60B04A97B60000938646EB17C60000FE
:104600001306C62597C500009385457517C500009C
:104610001305C539EF60704897B60000938606EA27
:1046200017C600001306862B97C5000093850572F8
:1046300017C500001305857EEF60304697B6000071
:104640009386C6E817C600001306464797C50000C4
:104650009385C53E17C500001305452AEF60F0435A
:1046600097B60000938686E717C600001306063348
:1046700097C500009385850D17C50000130505201B
:10468000EF60B04197B60000938646E617C600007B
:104690001306C66B97C500009385450B17C5000030
:1046A0001305C578EF60703F97B60000938606E566
:1046B00017C60000130686FA97C500009385051DEE
:1046C00017C5000013058558EF60303D97B6000010
:1046D0009386C6E317C60000130646F897C5000088
:1046E0009385C56417C500001305451AEF60F03ABD
:1046F00097B60000938686E217C60000130606ED03
:1047000097C500009385855517C500001305051949
:10471000EF60B03897B60000938646E117C60000F8
:104720001306C6EA97C500009385451717C5000014
:104730001305C55DEF60703697B60000938606E0FE
:1047400017C600001306867997C5000093850518E3
:1047500017C5000013058515EF60303497B60000CB
:104760009386C6DE17C600001306460497C50000F0
:104770009385C53217C5000013054514EF60F0316D
:1047800097B60000938686DD17C600001306064C18
:1047900097C50000938585ED17C50000130505EC4E
:1047A000EF60B02F97B60000938646DC17C6000076
:1047B0001306C64997C500009385450F17C500002D
:1047C0001305C510EF60702D97B60000938606DBC9
:1047D00017C600001306860F97C5000093850527AE
:1047E00017C5000013058546EF60302B97B6000013
:1047F0009386C6D917C60000130646D397C5000096
:104800009385C50C17C50000130545E6EF60F02839
:1048100097B60000938686D817C60000130606FEDA
:1048200097C50000938585E417C500001305050AA8
:10483000EF60B02697B60000938646D717C60000F3
:104840001306C60B97C500009385450917C50000E0
:104850001305C526EF60702497B60000938606D630
:1048600017C600001306861F97C50000938505D064
:1048700017C5000013058506EF60302297B60000CB
:104880009386C6D417C600001306466497C5000079
:104890009385C50817C5000013054560EF60F01F3C
:1048A00097B60000938686D317C60000130606034A
:1048B00097C500009385850417C500001305051AE8
:1048C000EF60B01D97B60000938646D217C6000071
:1048D0001306C63897C50000938545CF17C500005D
:1048E0001305C5BEEF60701B97B60000938606D116
:1048F00017C600001306863697C50000938505028B
:1049000017C50000130585FEEF60301997B600004B
:104910009386C6CF17C600001306460097C5000051
:104920009385C53317C5000013054511EF60F016D8
:1049300097B60000938686CE17C600001306065968
:1049400097C50000938585FA17C50000130505FD7E
:10495000EF60B01497B60000938646CD17C60000EE
:104960001306C6FB97C50000938545CE17C500000A
:104970001305C5B5EF60701297B60000938606CC9C
:1049800017C60000130686E697C50000938505F953
:1049900017C50000130585B3EF60301097B600000F
:1049A0009386C6CA17C60000130646F897C50000CE
:1049B0009385C5D917C50000130545FEEF60F00DBE
:1049C00097B60000938686C917C600001306061521
:1049D00097C50000938585FC17C50000130505E306
:1049E000EF60B00B97B60000938646C817C600006C
:1049F0001306C6DE97C500009385453C17C5000029
:104A00001305C53CEF60700997B60000938606C792
:104A100017C60000130686B297C50000938505F4FB
:104A200017C5000013058554EF60300797B60000E6
:104A30009386C6C517C60000130646BC97C500007E
:104A40009385C5EF17C5000013054525EF60F004F9
:104A500097B60000938686C417C600001306063377
:104A600097C500009385854E17C500001305051DE9
:104A7000EF60B00297B60000938646C317C60000E9
:104A80001306C6D897C50000938545EC17C50000EE
:104A90001305C508EF60700097B60000938606C244
:104AA00017C60000130686D697C50000938505F843
:104AB00017C50000130585E9EF60207E97B600005A
:104AC0009386C6C017C60000130646EA97C50000C5
:104AD0009385C5E717C50000130545E8EF60E07B47
:104AE00097B60000938686BF17C60000130606E738
:104AF00097C50000938585A417C50000130505E739
:104B0000EF60A07997B60000938646BE17C60000F6
:104B10001306C6E397C50000938545E517C5000059
:104B20001305C5FFEF60607797B60000938606BD5A
:104B300017C600001306863D97C50000938505DF64
:104B400017C5000013058527EF60207597B6000094
:104B50009386C6BB17C60000130646E297C5000041
:104B60009385C51517C50000130545A8EF60E072D1
:104B700097B60000938686BA17C60000130606A2F1
:104B800097C500009385851317C50000130505140C
:104B9000EF60A07097B60000938646B917C6000074
:104BA0001306C69E97C500009385459F17C5000054
:104BB0001305C5DDEF60606E97B60000938606B8FA
:104BC00017C600001306869D97C500009385051043
:104BD00017C50000130585DBEF60206C97B6000059
:104BE0009386C6B617C60000130646D497C50000C4
:104BF0009385C59417C50000130545DAEF60E06999
:104C000097B60000938686B517C60000130606C047
:104C100097C50000938585D817C500001305059238
:104C2000EF60A06797B60000938646B417C60000F1
:104C30001306C6D797C500009385450517C5000024
:104C40001305C5C1EF60606597B60000938606B393
:104C500017C60000130686A697C50000938505A217
:104C600017C50000130585D4EF60206397B60000D8
:104C70009386C6B117C600001306469397C5000079
:104C80009385C5D317C500001305458FEF60E0601D
:104C900097B60000938686B017C600001306060577
:104CA00097C50000938585B017C500001305051A48
:104CB000EF60A05E97B60000938646AF17C600006F
:104CC0001306C69697C50000938545A317C5000037
:104CD0001305C5CFEF60605C97B60000938606AE03
:104CE00017C60000130686CE97C50000938505E71A
:104CF00017C5000013058593EF60205A97B6000092
:104D00009386C6AC17C60000130646D097C50000B0
:104D10009385C5CC17C50000130545EAEF60E05741
:104D200097B60000938686AB17C60000130606CB25
:104D300097C50000938585CD17C50000130505CBE9
:104D4000EF60A05597B60000938646AA17C60000EC
:104D50001306C6C897C50000938545C917B500005E
:104D60001305C575EF60605397B60000938606A9DA
:104D700017B600001306867497C50000938505FFDB
:104D800017C50000130585C4EF60205197B60000D9
:104D90009386C6A717C60000130646FA97C50000FB
:104DA0009385C5C517C5000013054580EF60E04E2B
:104DB00097B60000938686A617C60000130606F372
:104DC00097C500009385850917B500001305057E7A
:104DD000EF60A04C97B60000938646A517C600006A
:104DE0001306C68997C500009385458017C5000046
:104DF0001305C593EF60604A97B60000938606A43A
:104E000017C60000130686BE97C50000938505C02F
:104E100017C500001305858DEF60204897B6000088
:104E20009386C6A217C60000130646BE97C50000AB
:104E30009385C5CD17C500001305458BEF60E04590
:104E400097B60000938686A117C60000130606BD1C
:104E500097C50000938585D317C5000013050598F5
:104E6000EF60A04397B60000938646A017C60000E7
:104E70001306C69697C50000938545F517C5000033
:104E80001305C5B9EF60604197B600009386069F91
:104E900017C60000130686FA97C500009385050E15
:104EA00017C5000013058593EF60203F97B60000FB
:104EB0009386C69D17C60000130646B797C5000027
:104EC0009385C5C717B5000013054568EF60E03C42
:104ED00097B600009386869C17B6000013060667F7
:104EE00097B500009385857B17C50000130505B4B1
:104EF000EF60A03A97B600009386469B17C6000065
:104F00001306C6D797B500009385457417C50000F2
:104F10001305C5B2EF60603897B600009386069A15
:104F200017C60000130686B197B500009385057279
:104F300017C500001305859EEF60203697B6000068
:104F40009386C69817C60000130646D297C5000080
:104F50009385C5AF17B500001305455DEF60E033DD
:104F600097B600009386869717C60000130606AE14
:104F700097C500009385859517B500001305055B5F
:104F8000EF60A03197B600009386469617C60000E2
:104F90001306C6CC97B500009385455317C500008E
:104FA0001305C5ABEF60602F97B60000938606959A
:104FB00017B600001306865197B500009385056962
:104FC00017C50000130585A9EF60202D97B60000D6
:104FD0009386C69317C60000130646F597B50000E2
:104FE0009385C57A17C50000130545A8EF60E02A30
:104FF00097B600009386869217B600001306067ACD
:1050000097B500009385854F17C50000130505A7C8
:10501000EF60A02897B600009386469117B600006F
:105020001306C66897C50000938545A517C50000FF
:105030001305C5A5EF60602697B60000938606901D
:1050400017B600001306867597C50000938505A462
:1050500017B500001305854AEF60202497B60000BD
:105060009386C68E17B600001306464997C5000002
:105070009385C5A117C50000130545A0EF60E02189
:1050800097B600009386868D17B600001306065E5D
:1050900097C50000938585A017B500001305054945
:1050A000EF60A01F97B600009386468C17C60000DD
:1050B0001306C69E97B500009385455B17C5000093
:1050C0001305C5B8EF60601D97B600009386068B88
:1050D00017C60000130686BB97C50000938505E13F
:1050E00017C500001305859CEF60201B97B60000D4
:1050F0009386C68917B600001306467797C5000049
:105100009385C5B717C500001305459BEF60E018F0
:1051100097B600009386868817C60000130606C35C
:1051200097C50000938585D017C50000130505CFEE
:10513000EF60A01697B600009386468717C600005A
:105140001306C68797C500009385459817C50000CC
:105150001305C5B1EF60601497B60000938606860C
:1051600017C60000130686B897C50000938505CEC4
:1051700017C50000130585CEEF60201297B600001A
:105180009386C68417C600001306469597B500009F
:105190009385C54A17C50000130545C0EF60E00FB1
:1051A00097B600009386868317C60000130606C0D4
:1051B00097B500009385854817C500001305059332
:1051C000EF60A00D97B600009386468217C60000D8
:1051D0001306C69097C500009385459117B500004A
:1051E0001305C545EF60600B97B6000093860681F6
:1051F00017B600001306867997C500009385058FC2
:1052000017C500001305858DEF60200997A60000E3
:105210009386C67F17B600001306462A97C500007E
:105220009385C58D17B500001305457BEF60E0063B
:1052300097A600009386867E17C600001306068D8B
:1052400097C500009385859E17C500001305058B43
:10525000EF60A00497A600009386467D17B6000075
:105260001306C67697C500009385458A17B50000DA
:105270001305C524EF60600297A600009386067CA4
:1052800017C600001306868797B50000938505238F
:1052900017C5000013058587EF60200097A6000062
:1052A0009386C67A17B600001306466897B50000C5
:1052B0009385C56E17C5000013054586EF50F07D38
:1052C00097A600009386867917C600001306068508
:1052D00097B500009385856917B50000130505652E
:1052E000EF50B07B97A600009386467617B6000075
:1052F0001306C66397B500009385456A17C500007D
:105300001305C581EF50707997A600009386067645
:1053100017B600001306865197C500009385058FC8
:1053200017C5000013058580EF50307797A6000061
:105330009386C67417B600001306467F97B5000023
:105340009385C53417B500001305454EEF50F07432
:1053500097A600009386867317C60000130606BC46
:1053600097B500009385857D17B5000013050540AE
:10537000EF50B07297A600009386467217C60000E1
:105380001306C6BD97B500009385453E17B50000CE
:105390001305C57AEF50707097A6000093860671CA
:1053A00017C600001306868E97B500009385057A10
:1053B00017B5000013058540EF50306E97A600002A
:1053C0009386C66F17B600001306467897B500009F
:1053D0009385C52A17B5000013054523EF50F06BE0
:1053E00097A600009386866E17B600001306067710
:1053F00097C500009385859717B5000013050554E0
:10540000EF50B06997A600009386466D17B600006E
:105410001306C67497B500009385453C17B5000088
:105420001305C551EF50706797A600009386066C70
:1054300017C600001306869597B5000093850550A2
:1054400017B500001305851BEF50306597A60000C7
:105450009386C66A17C60000130646A197C50000CA
:105460009385C5A917B5000013054570EF50F0628C
:1054700097A600009386866917B60000130606708B
:1054800097B500009385852C17B500001305054AD4
:10549000EF50B06097A600009386466817B60000EC
:1054A0001306C61097B500009385452A17B500006E
:1054B0001305C56CEF50705E97A6000093860667D3
:1054C00017B600001306866C97B500009385052378
:1054D00017B5000013058515EF50305C97A6000046
:1054E0009386C66517B600001306466A97B5000096
:1054F0009385C51317B500001305452EEF50F059DD
:1055000097A600009386866417C600001306068ED1
:1055100097C500009385859517B5000013050565AF
:10552000EF50B05797A600009386466317B6000069
:105530001306C67597B500009385452817B500007A
:105540001305C565EF50705597A600009386066257
:1055500017B600001306862697B500009385057ED2
:1055600017B5000013058563EF50305397A6000070
:105570009386C66017B600001306466397B5000011
:105580009385C55817B5000013054544EF50F050FA
:1055900097A600009386865F17B600001306066183
:1055A00097B500009385851417B5000013050556BF
:1055B000EF50B04E97A600009386465E17B60000E7
:1055C0001306C64197B500009385451D17B5000029
:1055D0001305C55FEF50704C97A600009386065DDB
:1055E00017B600001306865D97B50000938505F792
:1055F00017B5000013058547EF50304A97A6000005
:105600009386C65B17B60000130646F597B50000F3
:105610009385C55A17B5000013054509EF50F047AB
:1056200097A600009386865A17B600001306065AFE
:1056300097B500009385851617B50000130505077B
:10564000EF50B04597A600009386465917B6000064
:105650001306C65897B500009385455917B5000045
:105660001305C5F9EF50704397A6000093860658BE
:1056700017B600001306864C97C500009385058A6F
:1056800017B5000013058557EF50304197A600006D
:105690009386C65617B600001306460D97B5000050
:1056A0009385C55517B500001305450BEF50F03E27
:1056B00097A600009386865517B600001306064885
:1056C00097B500009385855417B50000130505169E
:1056D000EF50B03C97A600009386465417B60000E2
:1056E0001306C64597B500009385453417B50000ED
:1056F0001305C551EF50703A97A6000093860653E4
:1057000017B600001306863897B50000938505513B
:1057100017B50000130585F9EF50303897A6000043
:105720009386C65117B600001306463697B500009B
:105730009385C50617B500001305454EEF50F035AB
:1057400097A600009386865017B60000130606320F
:1057500097B500009385854C17B500001305054DDE
:10576000EF50B03397A600009386464F17B600005F
:105770001306C62F97B500009385454B17B500005B
:105780001305C543EF50703197A600009386064E6F
:1057900017B600001306864A97B50000938505E802
:1057A00017B50000130585F3EF50302F97A60000C2
:1057B0009386C64C17B600001306460F97B5000037
:1057C0009385C50C17B500001305456CEF50F02C00
:1057D00097A600009386864B17B600001306060EA8
:1057E00097B500009385854617B50000130505267B
:1057F000EF50B02A97A600009386464A17B60000DD
:105800001306C64497B500009385450B17B50000F5
:105810001305C528EF50702897A600009386064907
:1058200017B600001306860C97B500009385056730
:1058300017B5000013058506EF50302697A6000027
:105840009386C64717B600001306460B97B50000AF
:105850009385C51E17B5000013054540EF50F02392
:1058600097A600009386864617B600001306061F0B
:1058700097B500009385850817B500001305053E10
:10588000EF50B02197A600009386464517B600005A
:105890001306C65797B50000938545CE17B500008F
:1058A0001305C53CEF50701F97A600009386064471
:1058B00017B60000130686C797B50000938505D27A
:1058C00017B500001305853AEF50301D97A600006C
:1058D0009386C64217B600001306465297B50000DD
:1058E0009385C53917B50000130545C9EF50F01A67
:1058F00097A600009386864117B60000130606D5CA
:1059000097B500009385853717B50000130505C6C8
:10591000EF50B01897A600009386464017B60000D7
:105920001306C60897B50000938545D517B5000046
:105930001305C535EF50701697A600009386063FF5
:1059400017B60000130686D397B50000938505208F
:1059500017B5000013058533EF50301497A60000EB
:105960009386C63D17B60000130646E797B50000BC
:105970009385C53217B50000130545FCEF50F011B3
:1059800097A600009386863C17B60000130606E52E
:1059900097B50000938585C817B50000130505303D
:1059A000EF50B00F97A600009386463917B6000057
:1059B0001306C6F897B50000938545E217B50000B9
:1059C0001305C52DEF50700D97A60000938606397C
:1059D00017B60000130686C297B500009385052C04
:1059E00017B500001305852CEF50300B97A600006B
:1059F0009386C63717B60000130646C097B5000059
:105A00009385C52A17B500001305451DEF50F00812
:105A100097A600009386863617B60000130606BDCB
:105A200097B500009385852917B50000130505CAB1
:105A3000EF50B00697A600009386463517B60000D3
:105A40001306C6C897B500009385452717B5000013
:105A50001305C5B3EF50700497A600009386063473
:105A600017B60000130686F197B500009385050868
:105A700017B5000013058525EF50300297A60000EA
:105A80009386C63217B600001306462497B5000069
:105A90009385C52217B50000130545EEEF50E07F52
:105AA00097A600009386863117B60000130606FC01
:105AB00097B500009385852217B5000013050547AB
:105AC000EF50A07D97A600009386463017B60000E1
:105AD0001306C6CB97B50000938545CA17B50000DD
